{
  "contractName": "LandRecord",
  "abi": [
    {
      "constant": false,
      "inputs": [
        {
          "name": "_Land_id",
          "type": "string"
        },
        {
          "name": "_Land_name",
          "type": "string"
        },
        {
          "name": "_paddress",
          "type": "string"
        },
        {
          "name": "_Owner",
          "type": "string"
        },
        {
          "name": "_status",
          "type": "string"
        },
        {
          "name": "_pincode",
          "type": "string"
        },
        {
          "name": "_Sale",
          "type": "string"
        },
        {
          "name": "_moreAccess",
          "type": "string"
        },
        {
          "name": "_documents",
          "type": "string"
        }
      ],
      "name": "storeProperty",
      "outputs": [],
      "payable": false,
      "stateMutability": "nonpayable",
      "type": "function"
    },
    {
      "constant": false,
      "inputs": [
        {
          "name": "_Sale",
          "type": "string"
        }
      ],
      "name": "searchProperty",
      "outputs": [
        {
          "name": "",
          "type": "string[]"
        }
      ],
      "payable": false,
      "stateMutability": "nonpayable",
      "type": "function"
    },
    {
      "constant": false,
      "inputs": [
        {
          "name": "_Owner",
          "type": "string"
        }
      ],
      "name": "accDetails",
      "outputs": [
        {
          "name": "",
          "type": "string[]"
        }
      ],
      "payable": false,
      "stateMutability": "nonpayable",
      "type": "function"
    },
    {
      "constant": false,
      "inputs": [
        {
          "name": "_landid",
          "type": "string"
        }
      ],
      "name": "retsearchProperty",
      "outputs": [
        {
          "name": "",
          "type": "string"
        },
        {
          "name": "",
          "type": "string"
        },
        {
          "name": "",
          "type": "string"
        },
        {
          "name": "",
          "type": "string"
        },
        {
          "name": "",
          "type": "string"
        },
        {
          "name": "",
          "type": "string"
        }
      ],
      "payable": false,
      "stateMutability": "nonpayable",
      "type": "function"
    },
    {
      "constant": false,
      "inputs": [
        {
          "name": "_landid",
          "type": "string"
        }
      ],
      "name": "retaccDetails",
      "outputs": [
        {
          "name": "",
          "type": "string"
        },
        {
          "name": "",
          "type": "string"
        },
        {
          "name": "",
          "type": "string"
        },
        {
          "name": "",
          "type": "string"
        },
        {
          "name": "",
          "type": "string"
        },
        {
          "name": "",
          "type": "string"
        },
        {
          "name": "",
          "type": "string"
        },
        {
          "name": "",
          "type": "string"
        }
      ],
      "payable": false,
      "stateMutability": "nonpayable",
      "type": "function"
    },
    {
      "constant": false,
      "inputs": [
        {
          "name": "_Owner",
          "type": "string"
        },
        {
          "name": "_landid",
          "type": "string"
        },
        {
          "name": "_status",
          "type": "string"
        },
        {
          "name": "_Sale",
          "type": "string"
        }
      ],
      "name": "updateProperty",
      "outputs": [],
      "payable": false,
      "stateMutability": "nonpayable",
      "type": "function"
    },
    {
      "constant": false,
      "inputs": [
        {
          "name": "_Owner",
          "type": "string"
        },
        {
          "name": "_landid",
          "type": "string"
        },
        {
          "name": "_paddress",
          "type": "string"
        }
      ],
      "name": "updateOwnership",
      "outputs": [],
      "payable": false,
      "stateMutability": "nonpayable",
      "type": "function"
    },
    {
      "constant": false,
      "inputs": [
        {
          "name": "_moreAccess",
          "type": "string"
        }
      ],
      "name": "moreView",
      "outputs": [
        {
          "name": "",
          "type": "string"
        }
      ],
      "payable": false,
      "stateMutability": "nonpayable",
      "type": "function"
    }
  ],
  "bytecode": "0x608060405260008055600060015560006002556000600355600060045534801561002857600080fd5b50612360806100386000396000f3fe608060405234801561001057600080fd5b50600436106100885760003560e01c8063c9029bf81161005b578063c9029bf814610125578063ccff3b3b14610141578063cf76eb6814610171578063d48f7802146101a657610088565b8063113bf6ac1461008d5780635567f9cd146100bd5780635fbeb78b146100ed5780636b3e36ad14610109575b600080fd5b6100a760048036036100a29190810190611c53565b6101dd565b6040516100b49190612087565b60405180910390f35b6100d760048036036100d29190810190611c53565b610661565b6040516100e491906120a9565b60405180910390f35b61010760048036036101029190810190611c94565b610763565b005b610123600480360361011e9190810190611dee565b61089d565b005b61013f600480360361013a9190810190611d2b565b610a19565b005b61015b60048036036101569190810190611c53565b610ad3565b6040516101689190612087565b60405180910390f35b61018b60048036036101869190810190611c53565b610ea3565b60405161019d969594939291906120cb565b60405180910390f35b6101c060048036036101bb9190810190611c53565b611319565b6040516101d4989796959493929190612156565b60405180910390f35b606060b960006101ed9190611a3e565b60ba60006101fb9190611a3e565b60bb60006102099190611a3e565b60bc60006102179190611a3e565b60bd60006102259190611a3e565b60be60006102339190611a3e565b60bf60006102419190611a3e565b60c0600061024f9190611a3e565b60c1600061025d9190611a3e565b60006001819055505b60045460015410156105785761028b602d6001546014811061028457fe5b01836118f0565b156105615760b96005600154601481106102a157fe5b0190806001815401808255809150509060018203906000526020600020016000909192909190915090805460018160011615610100020316600290046102e8929190611a5f565b505060ba6019600154601481106102fb57fe5b019080600181540180825580915050906001820390600052602060002001600090919290919091509080546001816001161561010002031660029004610342929190611a5f565b505060bc60416001546014811061035557fe5b01908060018154018082558091505090600182039060005260206000200160009091929091909150908054600181600116156101000203166002900461039c929190611a5f565b505060bd6055600154601481106103af57fe5b0190806001815401808255809150509060018203906000526020600020016000909192909190915090805460018160011615610100020316600290046103f6929190611a5f565b505060be60696001546014811061040957fe5b019080600181540180825580915050906001820390600052602060002001600090919290919091509080546001816001161561010002031660029004610450929190611a5f565b505060bf607d6001546014811061046357fe5b0190806001815401808255809150509060018203906000526020600020016000909192909190915090805460018160011615610100020316600290046104aa929190611a5f565b505060c06091600154601481106104bd57fe5b019080600181540180825580915050906001820390600052602060002001600090919290919091509080546001816001161561010002031660029004610504929190611a5f565b505060c160a56001546014811061051757fe5b01908060018154018082558091505090600182039060005260206000200160009091929091909150908054600181600116156101000203166002900461055e929190611a5f565b50505b600160008154809291906001019190505550610266565b60b9805480602002602001604051908101604052809291908181526020016000905b82821015610656578382906000526020600020018054600181600116156101000203166002900480601f0160208091040260200160405190810160405280929190818152602001828054600181600116156101000203166002900480156106425780601f1061061757610100808354040283529160200191610642565b820191906000526020600020905b81548152906001019060200180831161062557829003601f168201915b50505050508152602001906001019061059a565b505050509050919050565b606060006001819055505b600454600154101561075d5761069160916001546014811061068a57fe5b01836118f0565b156107465760a5600154601481106106a557fe5b018054600181600116156101000203166002900480601f01602080910402602001604051908101604052809291908181526020018280546001816001161561010002031660029004801561073a5780601f1061070f5761010080835404028352916020019161073a565b820191906000526020600020905b81548152906001019060200180831161071d57829003601f168201915b5050505050905061075e565b60016000815480929190600101919050555061066c565b5b919050565b60006001819055505b600454600154101561089857610791602d6001546014811061078a57fe5b01846118f0565b15610881576107af6005600154601481106107a857fe5b01836118f0565b156108805760006002819055505b600454600254101561087f576107e26041600254601481106107db57fe5b01826118f0565b1561086857602d600254601481106107f657fe5b01602d6001546014811061080657fe5b019080546001816001161561010002031660029004610826929190611a5f565b5060416002546014811061083657fe5b0160416001546014811061084657fe5b019080546001816001161561010002031660029004610866929190611a5f565b505b6002600081548092919060010191905055506107bd565b5b5b60016000815480929190600101919050555061076c565b505050565b886005600354601481106108ad57fe5b0190805190602001906108c1929190611ae6565b50876019600354601481106108d257fe5b0190805190602001906108e6929190611ae6565b50866041600354601481106108f757fe5b01908051906020019061090b929190611ae6565b5085602d6003546014811061091c57fe5b019080519060200190610930929190611ae6565b508460556003546014811061094157fe5b019080519060200190610955929190611ae6565b508360696003546014811061096657fe5b01908051906020019061097a929190611ae6565b5082607d6003546014811061098b57fe5b01908051906020019061099f929190611ae6565b50816091600354601481106109b057fe5b0190805190602001906109c4929190611ae6565b508060a5600354601481106109d557fe5b0190805190602001906109e9929190611ae6565b50600360008154809291906001019190505550600460008154809291906001019190505550505050505050505050565b60006001819055505b6004546001541015610acd57610a47602d60015460148110610a4057fe5b01856118f0565b15610ab657610a65600560015460148110610a5e57fe5b01846118f0565b15610ab55781605560015460148110610a7a57fe5b019080519060200190610a8e929190611ae6565b5080607d60015460148110610a9f57fe5b019080519060200190610ab3929190611ae6565b505b5b600160008154809291906001019190505550610a22565b50505050565b606060b96000610ae39190611a3e565b60ba6000610af19190611a3e565b60bb6000610aff9190611a3e565b60bc6000610b0d9190611a3e565b60bd6000610b1b9190611a3e565b60be6000610b299190611a3e565b60bf6000610b379190611a3e565b60c06000610b459190611a3e565b60c16000610b539190611a3e565b60006001819055505b6004546001541015610dba57610b81605560015460148110610b7a57fe5b01836118f0565b15610da35760b9600560015460148110610b9757fe5b019080600181540180825580915050906001820390600052602060002001600090919290919091509080546001816001161561010002031660029004610bde929190611a5f565b505060ba601960015460148110610bf157fe5b019080600181540180825580915050906001820390600052602060002001600090919290919091509080546001816001161561010002031660029004610c38929190611a5f565b505060bc604160015460148110610c4b57fe5b019080600181540180825580915050906001820390600052602060002001600090919290919091509080546001816001161561010002031660029004610c92929190611a5f565b505060bd605560015460148110610ca557fe5b019080600181540180825580915050906001820390600052602060002001600090919290919091509080546001816001161561010002031660029004610cec929190611a5f565b505060be606960015460148110610cff57fe5b019080600181540180825580915050906001820390600052602060002001600090919290919091509080546001816001161561010002031660029004610d46929190611a5f565b505060bf607d60015460148110610d5957fe5b019080600181540180825580915050906001820390600052602060002001600090919290919091509080546001816001161561010002031660029004610da0929190611a5f565b50505b600160008154809291906001019190505550610b5c565b60b9805480602002602001604051908101604052809291908181526020016000905b82821015610e98578382906000526020600020018054600181600116156101000203166002900480601f016020809104026020016040519081016040528092919081815260200182805460018160011615610100020316600290048015610e845780601f10610e5957610100808354040283529160200191610e84565b820191906000526020600020905b815481529060010190602001808311610e6757829003601f168201915b505050505081526020019060010190610ddc565b505050509050919050565b60608060608060608060006001819055505b600454600154101561130f57610eda600560015460148110610ed357fe5b01886118f0565b156112f857600560015460148110610eee57fe5b01601960015460148110610efe57fe5b01604160015460148110610f0e57fe5b01605560015460148110610f1e57fe5b01606960015460148110610f2e57fe5b01607d60015460148110610f3e57fe5b01858054600181600116156101000203166002900480601f016020809104026020016040519081016040528092919081815260200182805460018160011615610100020316600290048015610fd45780601f10610fa957610100808354040283529160200191610fd4565b820191906000526020600020905b815481529060010190602001808311610fb757829003601f168201915b50505050509550848054600181600116156101000203166002900480601f0160208091040260200160405190810160405280929190818152602001828054600181600116156101000203166002900480156110705780601f1061104557610100808354040283529160200191611070565b820191906000526020600020905b81548152906001019060200180831161105357829003601f168201915b50505050509450838054600181600116156101000203166002900480601f01602080910402602001604051908101604052809291908181526020018280546001816001161561010002031660029004801561110c5780601f106110e15761010080835404028352916020019161110c565b820191906000526020600020905b8154815290600101906020018083116110ef57829003601f168201915b50505050509350828054600181600116156101000203166002900480601f0160208091040260200160405190810160405280929190818152602001828054600181600116156101000203166002900480156111a85780601f1061117d576101008083540402835291602001916111a8565b820191906000526020600020905b81548152906001019060200180831161118b57829003601f168201915b50505050509250818054600181600116156101000203166002900480601f0160208091040260200160405190810160405280929190818152602001828054600181600116156101000203166002900480156112445780601f1061121957610100808354040283529160200191611244565b820191906000526020600020905b81548152906001019060200180831161122757829003601f168201915b50505050509150808054600181600116156101000203166002900480601f0160208091040260200160405190810160405280929190818152602001828054600181600116156101000203166002900480156112e05780601f106112b5576101008083540402835291602001916112e0565b820191906000526020600020905b8154815290600101906020018083116112c357829003601f168201915b50505050509050955095509550955095509550611310565b600160008154809291906001019190505550610eb5565b5b91939550919395565b60608060608060608060608060006001819055505b60045460015410156118e45761135360056001546014811061134c57fe5b018a6118f0565b156118cd5760056001546014811061136757fe5b0160196001546014811061137757fe5b0160416001546014811061138757fe5b0160556001546014811061139757fe5b016069600154601481106113a757fe5b01607d600154601481106113b757fe5b016091600154601481106113c757fe5b0160a5600154601481106113d757fe5b01878054600181600116156101000203166002900480601f01602080910402602001604051908101604052809291908181526020018280546001816001161561010002031660029004801561146d5780601f106114425761010080835404028352916020019161146d565b820191906000526020600020905b81548152906001019060200180831161145057829003601f168201915b50505050509750868054600181600116156101000203166002900480601f0160208091040260200160405190810160405280929190818152602001828054600181600116156101000203166002900480156115095780601f106114de57610100808354040283529160200191611509565b820191906000526020600020905b8154815290600101906020018083116114ec57829003601f168201915b50505050509650858054600181600116156101000203166002900480601f0160208091040260200160405190810160405280929190818152602001828054600181600116156101000203166002900480156115a55780601f1061157a576101008083540402835291602001916115a5565b820191906000526020600020905b81548152906001019060200180831161158857829003601f168201915b50505050509550848054600181600116156101000203166002900480601f0160208091040260200160405190810160405280929190818152602001828054600181600116156101000203166002900480156116415780601f1061161657610100808354040283529160200191611641565b820191906000526020600020905b81548152906001019060200180831161162457829003601f168201915b50505050509450838054600181600116156101000203166002900480601f0160208091040260200160405190810160405280929190818152602001828054600181600116156101000203166002900480156116dd5780601f106116b2576101008083540402835291602001916116dd565b820191906000526020600020905b8154815290600101906020018083116116c057829003601f168201915b50505050509350828054600181600116156101000203166002900480601f0160208091040260200160405190810160405280929190818152602001828054600181600116156101000203166002900480156117795780601f1061174e57610100808354040283529160200191611779565b820191906000526020600020905b81548152906001019060200180831161175c57829003601f168201915b50505050509250818054600181600116156101000203166002900480601f0160208091040260200160405190810160405280929190818152602001828054600181600116156101000203166002900480156118155780601f106117ea57610100808354040283529160200191611815565b820191906000526020600020905b8154815290600101906020018083116117f857829003601f168201915b50505050509150808054600181600116156101000203166002900480601f0160208091040260200160405190810160405280929190818152602001828054600181600116156101000203166002900480156118b15780601f10611886576101008083540402835291602001916118b1565b820191906000526020600020905b81548152906001019060200180831161189457829003601f168201915b50505050509050975097509750975097509750975097506118e5565b60016000815480929190600101919050555061132e565b5b919395975091939597565b60008083905060608390508051828054600181600116156101000203166002900490501461192357600092505050611a38565b600080819055505b818054600181600116156101000203166002900490506000541015611a3157806000548151811061195857fe5b602001015160f81c60f81b7effffffffffffffffffffffffffffffffffffffffffffffffffffffffffffff1916826000548154600181600116156101000203166002900481106119a457fe5b8154600116156119c35790600052602060002090602091828204019190065b9054901a7f0100000000000000000000000000000000000000000000000000000000000000027effffffffffffffffffffffffffffffffffffffffffffffffffffffffffffff191614611a1b57600092505050611a38565b600080815480929190600101919050555061192b565b6001925050505b92915050565b5080546000825590600052602060002090810190611a5c9190611b66565b50565b828054600181600116156101000203166002900490600052602060002090601f016020900481019282601f10611a985780548555611ad5565b82800160010185558215611ad557600052602060002091601f016020900482015b82811115611ad4578254825591600101919060010190611ab9565b5b509050611ae29190611b92565b5090565b828054600181600116156101000203166002900490600052602060002090601f016020900481019282601f10611b2757805160ff1916838001178555611b55565b82800160010185558215611b55579182015b82811115611b54578251825591602001919060010190611b39565b5b509050611b629190611b92565b5090565b611b8f91905b80821115611b8b5760008181611b829190611bb7565b50600101611b6c565b5090565b90565b611bb491905b80821115611bb0576000816000905550600101611b98565b5090565b90565b50805460018160011615610100020316600290046000825580601f10611bdd5750611bfc565b601f016020900490600052602060002090810190611bfb9190611b92565b5b50565b600082601f830112611c1057600080fd5b8135611c23611c1e82612239565b61220c565b91508082526020830160208301858383011115611c3f57600080fd5b611c4a8382846122d3565b50505092915050565b600060208284031215611c6557600080fd5b600082013567ffffffffffffffff811115611c7f57600080fd5b611c8b84828501611bff565b91505092915050565b600080600060608486031215611ca957600080fd5b600084013567ffffffffffffffff811115611cc357600080fd5b611ccf86828701611bff565b935050602084013567ffffffffffffffff811115611cec57600080fd5b611cf886828701611bff565b925050604084013567ffffffffffffffff811115611d1557600080fd5b611d2186828701611bff565b9150509250925092565b60008060008060808587031215611d4157600080fd5b600085013567ffffffffffffffff811115611d5b57600080fd5b611d6787828801611bff565b945050602085013567ffffffffffffffff811115611d8457600080fd5b611d9087828801611bff565b935050604085013567ffffffffffffffff811115611dad57600080fd5b611db987828801611bff565b925050606085013567ffffffffffffffff811115611dd657600080fd5b611de287828801611bff565b91505092959194509250565b60008060008060008060008060006101208a8c031215611e0d57600080fd5b60008a013567ffffffffffffffff811115611e2757600080fd5b611e338c828d01611bff565b99505060208a013567ffffffffffffffff811115611e5057600080fd5b611e5c8c828d01611bff565b98505060408a013567ffffffffffffffff811115611e7957600080fd5b611e858c828d01611bff565b97505060608a013567ffffffffffffffff811115611ea257600080fd5b611eae8c828d01611bff565b96505060808a013567ffffffffffffffff811115611ecb57600080fd5b611ed78c828d01611bff565b95505060a08a013567ffffffffffffffff811115611ef457600080fd5b611f008c828d01611bff565b94505060c08a013567ffffffffffffffff811115611f1d57600080fd5b611f298c828d01611bff565b93505060e08a013567ffffffffffffffff811115611f4657600080fd5b611f528c828d01611bff565b9250506101008a013567ffffffffffffffff811115611f7057600080fd5b611f7c8c828d01611bff565b9150509295985092959850929598565b6000611f98838361204e565b905092915050565b6000611fab82612272565b611fb581856122a0565b935083602082028501611fc785612265565b8060005b858110156120035784840389528151611fe48582611f8c565b9450611fef83612293565b925060208a01995050600181019050611fcb565b50829750879550505050505092915050565b600061202082612288565b61202a81856122c2565b935061203a8185602086016122e2565b61204381612315565b840191505092915050565b60006120598261227d565b61206381856122b1565b93506120738185602086016122e2565b61207c81612315565b840191505092915050565b600060208201905081810360008301526120a18184611fa0565b905092915050565b600060208201905081810360008301526120c38184612015565b905092915050565b600060c08201905081810360008301526120e58189612015565b905081810360208301526120f98188612015565b9050818103604083015261210d8187612015565b905081810360608301526121218186612015565b905081810360808301526121358185612015565b905081810360a08301526121498184612015565b9050979650505050505050565b6000610100820190508181036000830152612171818b612015565b90508181036020830152612185818a612015565b905081810360408301526121998189612015565b905081810360608301526121ad8188612015565b905081810360808301526121c18187612015565b905081810360a08301526121d58186612015565b905081810360c08301526121e98185612015565b905081810360e08301526121fd8184612015565b90509998505050505050505050565b6000604051905081810181811067ffffffffffffffff8211171561222f57600080fd5b8060405250919050565b600067ffffffffffffffff82111561225057600080fd5b601f19601f8301169050602081019050919050565b6000602082019050919050565b600081519050919050565b600081519050919050565b600081519050919050565b6000602082019050919050565b600082825260208201905092915050565b600082825260208201905092915050565b600082825260208201905092915050565b82818337600083830152505050565b60005b838110156123005780820151818401526020810190506122e5565b8381111561230f576000848401525b50505050565b6000601f19601f830116905091905056fea265627a7a723058209659f7cb847eefd9261d23c9c0f6e1ffa1ad61ce89b1b59bbacc0abfc550e74f6c6578706572696d656e74616cf50037",
  "source": "pragma solidity ^0.5.0;\r\npragma experimental ABIEncoderV2;\r\n\r\n\r\ncontract LandRecord\r\n{\r\n    uint i=0;\r\n    uint j=0;\r\n    uint k=0;\r\n    uint z=0;\r\n    uint insertcount=0;\r\n    string[20] Land_id;\r\n    string[20] Land_name;\r\n    string[20] Owner;\r\n    string[20] paddress;\r\n    string[20] status;\r\n    string[20] pincode;\r\n    string[20] Sale;\r\n    string[20] moreAccess;\r\n    string[20] documents;\r\n    \r\n    string[] Land_id_arr;\r\n    string[] Land_name_arr;\r\n    string[] Owner_arr;\r\n    string[] paddress_arr;\r\n    string[] status_arr;\r\n    string[] pincode_arr;\r\n    string[] Sale_arr;\r\n    string[] moreAccess_arr;\r\n    string[] documents_arr;\r\n    \r\n    \r\n    \r\n    \r\n    function storeProperty(string memory _Land_id,string memory _Land_name,string memory _paddress, string memory _Owner,string memory _status, string memory _pincode, string memory _Sale,string memory _moreAccess,string memory _documents) public {\r\n        \r\n        Land_id[z]= _Land_id;\r\n        Land_name[z] = _Land_name;\r\n        paddress[z] = _paddress;\r\n        Owner[z] = _Owner;\r\n        status[z] = _status;\r\n        pincode[z] = _pincode;\r\n        Sale[z] = _Sale;\r\n        moreAccess[z]= _moreAccess;\r\n        documents[z]= _documents;\r\n        z++;\r\n        \r\n        insertcount++;\r\n    }    \r\n    \r\n    function stringsEqual(string storage _a, string memory _b) internal returns (bool) {\r\n\t\tbytes storage a = bytes(_a);\r\n\t\tbytes memory b = bytes(_b);\r\n\t\tif (a.length != b.length)\r\n\t\t\treturn false;\r\n\r\n\t\tfor (i = 0; i < a.length; i ++)\r\n\t\t\tif (a[i] != b[i])\r\n\t\t\t\treturn false;\r\n\t\treturn true;\r\n\t}\r\n\t\r\n\t\r\n\t\r\n\r\n        \r\nfunction searchProperty(string memory _Sale) public returns(string [] memory){\r\ndelete Land_id_arr;\r\n   delete Land_name_arr;\r\n    delete Owner_arr;\r\n   delete paddress_arr;\r\n    delete status_arr;\r\n    delete pincode_arr;\r\n   delete Sale_arr;\r\n   delete moreAccess_arr;\r\n    delete documents_arr;\r\n    \r\n    \r\n\r\n    \r\nfor(j=0;j<insertcount;j++)\r\n{\r\n\r\nif(stringsEqual(status[j],_Sale))\r\n{\r\n\r\n    Land_id_arr.push(Land_id[j]);\r\n    Land_name_arr.push(Land_name[j]);\r\n    paddress_arr.push(paddress[j]);\r\n    status_arr.push(status[j]);\r\n    pincode_arr.push(pincode[j]);\r\n    Sale_arr.push(Sale[j]);\r\n   \r\n}\r\n\r\n}\r\n\r\nreturn (Land_id_arr);\r\n}\r\n\r\nfunction accDetails(string memory _Owner) public returns(string [] memory){\r\n delete Land_id_arr;\r\n   delete Land_name_arr;\r\n    delete Owner_arr;\r\n   delete paddress_arr;\r\n    delete status_arr;\r\n    delete pincode_arr;\r\n   delete Sale_arr;\r\n   delete moreAccess_arr;\r\n    delete documents_arr;\r\n    \r\nfor(j=0;j<insertcount;j++)\r\n{\r\nif(stringsEqual(Owner[j],_Owner))\r\n{\r\n    Land_id_arr.push(Land_id[j]);\r\n    Land_name_arr.push(Land_name[j]);\r\n    paddress_arr.push(paddress[j]);\r\n    status_arr.push(status[j]);\r\n    pincode_arr.push(pincode[j]);\r\n    Sale_arr.push(Sale[j]);\r\n    moreAccess_arr.push(moreAccess[j]);\r\n    documents_arr.push(documents[j]);\r\n\r\n    \r\n\r\n\r\n}\r\n\r\n}\r\n\r\nreturn (Land_id_arr);\r\n\r\n}\r\n\r\nfunction retsearchProperty(string memory _landid) public returns(string memory,string memory,string memory,string memory,string memory,string memory){\r\n\r\n    \r\nfor(j=0;j<insertcount;j++)\r\n{\r\n\r\nif(stringsEqual(Land_id[j],_landid))\r\n{\r\nreturn (Land_id[j],Land_name[j],paddress[j],status[j],pincode[j],Sale[j]);\r\n}\r\n\r\n}\r\n}\r\n\r\nfunction retaccDetails(string memory _landid) public returns(string memory,string memory,string memory,string memory,string memory,string memory,string memory,string memory){\r\n\r\n    \r\nfor(j=0;j<insertcount;j++)\r\n{\r\n\r\nif(stringsEqual(Land_id[j],_landid))\r\n{\r\nreturn (Land_id[j],Land_name[j],paddress[j],status[j],pincode[j],Sale[j],moreAccess[j],documents[j]);\r\n\r\n}\r\n}\r\n\r\n}\r\nfunction updateProperty(string memory _Owner,string memory _landid,string memory _status,string memory _Sale) public{\r\n\r\n    \r\nfor(j=0;j<insertcount;j++)\r\n{\r\n\r\nif(stringsEqual(Owner[j],_Owner))\r\n{\r\n    \r\n    if(stringsEqual(Land_id[j],_landid)){\r\n        status[j] = _status;\r\n        Sale[j] = _Sale; \r\n    }\r\n}\r\n\r\n}\r\n}\r\n\r\nfunction updateOwnership(string memory _Owner,string memory _landid, string memory _paddress) public{\r\n\r\n    \r\nfor(j=0;j<insertcount;j++)\r\n{\r\n\r\n    if(stringsEqual(Owner[j],_Owner)  )\r\n    {\r\n     if(stringsEqual(Land_id[j],_landid)){\r\n       for(k=0;k<insertcount;k++){\r\n           if(stringsEqual(paddress[k],_paddress)){\r\n               Owner[j]=Owner[k];\r\n               paddress[j]=paddress[k];\r\n           }\r\n       } \r\n     }\r\n    }\r\n\r\n\r\n}\r\n\r\n\r\n}\r\nfunction moreView(string memory _moreAccess) public returns(string memory){\r\n\r\n    \r\nfor(j=0;j<insertcount;j++)\r\n{\r\n\r\nif(stringsEqual(moreAccess[j],_moreAccess))\r\n{\r\n    return (documents[j]);\r\n}\r\n\r\n}\r\n}\r\n\r\n         \r\n}",
  "sourcePath": "C:/Users/Satendra Dixit/Desktop/BPRES/contracts/LandRecord.sol",
  "compiler": {
    "name": "solc",
    "version": "0.5.8+commit.23d335f2.Emscripten.clang"
  },
  "schemaVersion": "3.0.16",
  "updatedAt": "2019-11-04T07:53:21.867Z",
  "devdoc": {
    "methods": {}
  },
  "userdoc": {
    "methods": {}
  }
}